:08000000803102288731FD2F39
:100F08007708F5007608F40008007708F3007608FB
:100F1800F2000800783021009900220096010800AC
:100F280087318E2787318731D327873187319E27AD
:100F3800873108008B10210015170030F6000030AB
:100F4800F700873184278731080070087104031976
:100F5800AE2FB02F0130B12F0030F600F701760820
:100F6800F0007708F1000800A930F6000730F70014
:100F78008731892787318731942787318B178731C4
:100F8800A9278731700871040319CB2FCE2F2000B1
:100F98000C16D02F20000C12C62F803102282200F8
:100FA8008C018D018E012F3021008C00F0308D00D6
:100FB800FF308E00073023008C0030308D00CF309A
:100FC8008E002F3024008C00F0308D002100951306
:100FD8002700910120309200930194019501960118
:100FE8000030F6000030F7008731892787318B15EC
:080FF800080020008731B82F2A
:020000040001F9
:08000000FF3FFF3FFF3FFF3F00
:04000E00E43FFF3F8D
:00000001FF
